:1000000023C03DC03CC03BC03AC04BC138C037C024
:1000100036C035C034C033C08EC131C030C00102DB
:100020000000040000000000000000003800000094
:100030000000370002020202020202020202010272
:10004000040810202004100811241FBECFE5D2E0C0
:10005000DEBFCDBF20E0A8E6B0E001C01D92A8370A
:10006000B207E1F710E0A0E6B0E0EAE5F7E002C091
:1000700005900D92A836B107D9F76ED16CC3C0CFE9
:1000800090E0FC01E25CFF4F2491FC01EC5CFF4F2F
:100090008491882399F090E0880F991FFC01E25D1C
:1000A000FF4FA591B491FC01E85DFF4F85919491BC
:1000B0008FB7F894EC91E22BEC938FBF089590E00A
:1000C000FC01E25EFF4F3491FC01E25CFF4F2491A2
:1000D000FC01EC5CFF4FE491EE2339F1332399F0FE
:1000E000323071F028F4313071F48AB58F770AC05C
:1000F000333011F0343039F48CB58F7D8CBD03C0B2
:100100008AB58F7D8ABDF0E0EE0FFF1FE85DFF4FDF
:10011000A591B4918FB7F894EC91611103C020952B
:100120002E2301C02E2B2C938FBF08951F93CF93A6
:10013000DF93182FEB01A4DF209711F460E004C0D7
:10014000CF3FD10531F461E0812FDF91CF911F9135
:10015000B6CFE12FF0E0E25EFF4FE491E23089F0AC
:1001600038F4E130C1F48AB580688ABDC9BD17C0D2
:10017000E33061F0E43079F48CB580628CBDCBBDA6
:100180000EC08AB580628ABDC8BD09C08CB58062C8
:100190008CBDCEBD04C0C038D105ACF6CFCFDF9149
:1001A000CF911F9108953FB7F89480916E00909180
:1001B0006F00A0917000B091710022B708B601FEE7
:1001C00005C02F3F19F00196A11DB11D3FBFBA2FE9
:1001D000A92F982F8827820F911DA11DB11DBC0149
:1001E000CD0146E0660F771F881F991F4A95D1F70A
:1001F00008958F929F92AF92BF92CF92DF92EF922B
:10020000FF926B017C01CFDF4B015C01C114D10473
:10021000E104F104E9F0C7DFDC01CB018819990999
:10022000AA09BB09883E9340A105B10578F321E0F6
:10023000C21AD108E108F10888EE880E83E0981E02
:10024000A11CB11CC114D104E104F10421F7DECFDB
:10025000FF90EF90DF90CF90BF90AF909F908F90E6
:10026000089580B58E7F80BD8CE087B96AE070E02C
:1002700080E090E0BEDF369A3699FECF24B135B1EA
:10028000032E000C440B550B64EB7BE281E190E004
:10029000A2D1309362002093610080B5816080BD5F
:1002A00008951F920F920FB60F9211242F933F9330
:1002B0008F939F93AF93BF9380916A0090916B004F
:1002C000A0916C00B0916D003091690020E3230F84
:1002D0002D3720F44096A11DB11D05C023EB230F3F
:1002E0004196A11DB11D2093690080936A009093EF
:1002F0006B00A0936C00B0936D0080916E009091A4
:100300006F00A0917000B09171000196A11DB11D08
:1003100080936E0090936F00A0937000B093710073
:10032000BF91AF919F918F913F912F910F900FBEF1
:100330000F901F9018951F920F920FB60F921124D5
:100340008F93809168008F5F809368008F910F90EA
:100350000FBE0F901F90189578948AB582608ABD61
:100360008AB581608ABD83B7826083BF83B78160AD
:1003700083BF89B7826089BF80B7826080BF3298AF
:10038000319A309A379A8CB580648CBD80E078DEE3
:1003900081E076DE84E074DE84B7877F84BF81B538
:1003A000886181BD81E281BD81B5806481BD4424C5
:1003B0004A94512C3FEAC32ED12CE12CF12C48E772
:1003C000842E912CA12CB12C50E0652E50E0752E7E
:1003D00080916100909162008F369F40DCF18091A6
:1003E00074009091750090937700809376008091CF
:1003F0007200909173009093750080937400DED02A
:10040000A7019601E8D0DC01CB01805B9F4FAF4F85
:10041000BF4F9093730080937200D0D0A5019401D8
:10042000DAD0625E7F4F8F4F9F4FE3DE60917200A4
:100430007091730080E07ADE6091740070917500B5
:1004400081E074DE609176007091770084E06EDE6A
:1004500008DF68C080916000882339F1C0E0D0E0F7
:1004600082010C1B1D0BB80180E060DEB80181E049
:100470005DDEB80184E05ADEBE017595679575951D
:100480006795685D7F4F072E000C880B990BB1DED6
:100490002196CF3FD10521F760E080E010DE60E0DB
:1004A00081E00DDE60E084E00ADE1092600085B736
:1004B000877E806185BF85B7806285BF85B7806292
:1004C00085BF889585B78F7D85BF85B78F7D85BFB3
:1004D000C8DE80916100909162008F369F402CF1C0
:1004E000C0E0D0E0BE0180E021DEBE0181E01EDE82
:1004F000BE0184E01BDEBE01D7FF02C06D5F7F4FEF
:1005000075956795759567957195619571096859A8
:100510007F4F072E000C880B990B6BDE2196CF3F87
:10052000D10501F781E0809360006114710409F442
:100530004FCF66DD4DCFA0E0B0E0E0EAF2E08AC048
:10054000EC01688179818A819B8161157105810542
:10055000910521F464E279ED8BE597E02DE133EF2D
:1005600041E050E038D049015A0127EA31E440E047
:1005700050E04DD069017A01C501B4012CEE34EF91
:100580004FEF5FEF44D0022F132F9A01D701C6011E
:10059000800F911FA21FB31FB7FF03C00197A109CE
:1005A000B04888839983AA83BB83BC01CD019F7720
:1005B000CDB7DEB7ECE06AC0BEDF089583E690E019
:1005C000BADF0895609363007093640080936500C0
:1005D000909366000895052E97FB16F400940FD0B3
:1005E00057FD05D068D007FC02D046F408C05095EE
:1005F0004095309521953F4F4F4F5F4F089590950F
:100600008095709561957F4F8F4F9F4F08956894A7
:100610000013E894A0E0B0E0EFE0F3E01DC0EFEFDE
:10062000E7F959016A015E23550FEE08FE2C870198
:100630009B01AC019E23990F660B762FCB015DD0F9
:10064000CDB7DEB7EAE024C02F923F924F925F927F
:100650006F927F928F929F92AF92BF92CF92DF92D2
:10066000EF92FF920F931F93CF93DF93CDB7DEB737
:10067000CA1BDB0B0FB6F894DEBF0FBECDBF0994CB
:100680002A88398848885F846E847D848C849B8422
:10069000AA84B984C884DF80EE80FD800C811B8130
:1006A000AA81B981CE0FD11D0FB6F894DEBF0FBE5F
:1006B000CDBFED010895A1E21A2EAA1BBB1BFD01BF
:1006C0000DC0AA1FBB1FEE1FFF1FA217B307E40731
:1006D000F50720F0A21BB30BE40BF50B661F771F89
:1006E000881F991F1A9469F7609570958095909569
:1006F0009B01AC01BD01CF010895DF93CF939F9281
:10070000A0E49A2E0024D001E001F001169507958F
:10071000F794E794D794C794B794A79448F41068D3
:10072000A20FB31FC41FD51FE61FF71F081E191EF7
:10073000220F331F441F551F661F771F881F991FE5
:100740009A9421F79D01AE01BF01C00111249F9031
:0A075000CF91DF910895F894FFCFD8
:08075A0001C2100100000000C3
:00000001FF
