:1000000023C03DC03CC03BC03AC00BC138C037C064
:1000100036C035C034C033C032C031C030C000003B
:100020000000370000000000380002020202020255
:10003000020202020102040810202004100801023A
:10004000000004000000000011241FBECFE5D2E034
:10005000DEBFCDBF20E0AEE6B0E001C01D92AF37FD
:10006000B207E1F710E0A0E6B0E0E4E7F6E002C096
:1000700005900D92AE36B107D9F71DD1F9C2C0CFA8
:1000800090E0FC01E25CFF4F3491FC01EC5CFF4F1F
:100090002491FC01E65DFF4FE491EE2339F1332317
:1000A00099F0323071F028F4313071F48AB58F77DD
:1000B0000AC0333011F0343039F48CB58F7D8CBDEB
:1000C00003C08AB58F7D8ABDF0E0EE0FFF1FEC5DA7
:1000D000FF4FA591B4918FB7F894EC91611103C0D3
:1000E00020952E2301C02E2B2C938FBF0895CF93E4
:1000F000DF9390E0FC01EC5CFF4F2491FC01E65D96
:10010000FF4F8491882361F190E0880F991FFC01D3
:10011000E25EFF4FC591D491FC01EC5DFF4FA591CC
:10012000B491611109C09FB7F8948881209582230A
:100130008883EC912E230BC0623061F49FB7F89452
:100140003881822F809583238883EC912E2B2C93EA
:100150009FBF06C08FB7F894E8812E2B28838FBFEE
:10016000DF91CF9108953FB7F894809173009091FB
:100170007400A0917500B091760022B708B601FE18
:1001800005C02F3F19F00196A11DB11D3FBFBA2F29
:10019000A92F982F8827820F911DA11DB11DBC0189
:1001A000CD0146E0660F771F881F991F4A95D1F74A
:1001B00008958F929F92AF92BF92CF92DF92EF926B
:1001C000FF926B017C01CFDF4B015C01C114D104B4
:1001D000E104F104E9F0C7DFDC01CB0188199909DA
:1001E000AA09BB09883E9340A105B10578F321E037
:1001F000C21AD108E108F10888EE880E83E0981E43
:10020000A11CB11CC114D104E104F10421F7DECF1B
:10021000FF90EF90DF90CF90BF90AF909F908F9026
:1002200008951F920F920FB60F9211242F933F93B0
:100230008F939F93AF93BF9380916F0090917000C5
:10024000A0917100B091720030916E0020E3230FF5
:100250002D3720F44096A11DB11D05C023EB230FBF
:100260004196A11DB11D20936E0080936F00909365
:100270007000A0937100B093720080917300909110
:100280007400A0917500B09176000196A11DB11D7A
:100290008093730090937400A0937500B0937600E0
:1002A000BF91AF919F918F913F912F910F900FBE72
:1002B0000F901F90189578948AB582608ABD8AB590
:1002C00081608ABD83B7826083BF83B7816083BF4B
:1002D00089B7826089BF80B7826080BF3298319AC7
:1002E000309A379A8CB580648CBD60E087E0FFDE81
:1002F00061E080E0FCDE61E081E0F9DE61E084E065
:10030000F6DE2EEA822E912CA12CB12C38E7432E5A
:10031000512C612C712C40E0242E40E0342E81E0E1
:1003200087B9369A3699FECF84B125B190E0922BE9
:10033000893C91050CF472C01092600080917900A4
:1003400090917A0090937C0080937B00809177005D
:100350009091780090937A0080937900BCD0A501A9
:100360009401C6D0DC01CB01805B9F4FAF4FBF4FE4
:100370009093780080937700AED0A3019201B8D01B
:10038000625E7F4F8F4F9F4F14DF87E7E82E80E03C
:10039000F82E95E6C92E90E0D92EF701C191D191A2
:1003A0007F01F601019111916F0161E0802F9FDEC5
:1003B000209741F1CF3FD10539F1F801FF27E25CE9
:1003C000FF4FE491E23089F038F4E130C1F48AB5AE
:1003D00080688ABDC9BD1BC0E33061F0E43079F4A8
:1003E0008CB580628CBDCBBD12C08AB580628ABDDF
:1003F000C8BD0DC08CB580628CBDCEBD08C0C038F4
:10040000D10514F460E001C061E0802F39DE8DE792
:10041000E81680E0F80609F0C0CF14C068EC70E080
:1004200080E090E0C6DE8091600081110BC060E04A
:1004300027DE60E081E024DE60E084E021DEE1E0B0
:10044000E09360002114310409F469CFD9DD67CF4E
:10045000A0E0B0E0EDE2F2E08AC0EC0168817981D1
:100460008A819B81611571058105910521F464E202
:1004700079ED8BE597E02DE133EF41E050E038D0A6
:1004800049015A0127EA31E440E050E04DD06901CA
:100490007A01C501B4012CEE34EF4FEF5FEF44D089
:1004A000022F132F9A01D701C601800F911FA21F9F
:1004B000B31FB7FF03C00197A109B0488883998390
:1004C000AA83BB83BC01CD019F77CDB7DEB7ECE03B
:1004D0006AC0BEDF089581E690E0BADF08956093B8
:1004E00061007093620080936300909364000895AC
:1004F000052E97FB16F400940FD057FD05D068D059
:1005000007FC02D046F408C05095409530952195DF
:100510003F4F4F4F5F4F089590958095709561952F
:100520007F4F8F4F9F4F089568940013E894A0E089
:10053000B0E0ECE9F2E01DC0EFEFE7F959016A0124
:100540005E23550FEE08FE2C87019B01AC019E2314
:10055000990F660B762FCB015DD0CDB7DEB7EAE001
:1005600024C02F923F924F925F926F927F928F9210
:100570009F92AF92BF92CF92DF92EF92FF920F9332
:100580001F93CF93DF93CDB7DEB7CA1BDB0B0FB63C
:10059000F894DEBF0FBECDBF09942A8839884888F9
:1005A0005F846E847D848C849B84AA84B984C8848F
:1005B000DF80EE80FD800C811B81AA81B981CE0F86
:1005C000D11D0FB6F894DEBF0FBECDBFED0108956B
:1005D000A1E21A2EAA1BBB1BFD010DC0AA1FBB1F47
:1005E000EE1FFF1FA217B307E407F50720F0A21BB9
:1005F000B30BE40BF50B661F771F881F991F1A9426
:1006000069F760957095809590959B01AC01BD014F
:10061000CF010895DF93CF939F92A0E49A2E0024F8
:10062000D001E001F00116950795F794E794D7946F
:10063000C794B794A79448F41068A20FB31FC41FBF
:10064000D51FE61FF71F081E191E220F331F441F58
:10065000551F661F771F881F991F9A9421F79D01C8
:10066000AE01BF01C00111249F90CF91DF91089589
:04067000F894FFCF2C
:0E067400010100000000000100040000000071
:00000001FF
