:1000000023C03DC03CC03BC03AC049C138C037C026
:1000100036C035C034C033C032C031C030C000003B
:100020000000370000000000380002020202020255
:10003000020202020102040810202004100801023A
:10004000000004000000000011241FBECFE5D2E034
:10005000DEBFCDBF20E0A6E6B0E001C01D92A7370D
:10006000B207E1F710E0A0E6B0E0E6E1F7E002C099
:1000700005900D92A636B107D9F75BD14AC3C0CF20
:1000800090E0FC01E25CFF4F3491FC01EC5CFF4F1F
:100090002491FC01E65DFF4FE491EE2339F1332317
:1000A00099F0323071F028F4313071F48AB58F77DD
:1000B0000AC0333011F0343039F48CB58F7D8CBDEB
:1000C00003C08AB58F7D8ABDF0E0EE0FFF1FEC5DA7
:1000D000FF4FA591B4918FB7F894EC91611103C0D3
:1000E00020952E2301C02E2B2C938FBF0895CF93E4
:1000F000DF9390E0FC01EC5CFF4F2491FC01E65D96
:10010000FF4F8491882361F190E0880F991FFC01D3
:10011000E25EFF4FC591D491FC01EC5DFF4FA591CC
:10012000B491611109C09FB7F8948881209582230A
:100130008883EC912E230BC0623061F49FB7F89452
:100140003881822F809583238883EC912E2B2C93EA
:100150009FBF06C08FB7F894E8812E2B28838FBFEE
:10016000DF91CF9108951F93CF93DF93182FEB0169
:1001700061E0BDDF209711F460E004C0CF3FD105FE
:1001800031F461E0812FDF91CF911F9179CFE12F81
:10019000F0E0E25CFF4FE491E23089F038F4E130C6
:1001A000C1F48AB580688ABDC9BD17C0E33061F06B
:1001B000E43079F48CB580628CBDCBBD0EC08AB5BD
:1001C00080628ABDC8BD09C08CB580628CBDCEBDC1
:1001D00004C0C038D105ACF6CFCFDF91CF911F91CD
:1001E00008953FB7F89480916B0090916C00A091B6
:1001F0006D00B0916E0022B708B601FE05C02F3F1A
:1002000019F00196A11DB11D3FBFBA2FA92F982F3C
:100210008827820F911DA11DB11DBC01CD0146E0B3
:10022000660F771F881F991F4A95D1F708958F92FF
:100230009F92AF92BF92CF92DF92EF92FF926B01AB
:100240007C01CFDF4B015C01C114D104E104F10456
:10025000E9F0C7DFDC01CB0188199909AA09BB09BC
:10026000883E9340A105B10578F321E0C21AD10878
:10027000E108F10888EE880E83E0981EA11CB11CED
:10028000C114D104E104F10421F7DECFFF90EF9017
:10029000DF90CF90BF90AF909F908F9008951F9266
:1002A0000F920FB60F9211242F933F938F939F932A
:1002B000AF93BF938091670090916800A09169000F
:1002C000B0916A003091660020E3230F2D3720F4AF
:1002D0004096A11DB11D05C023EB230F4196A11D22
:1002E000B11D209366008093670090936800A093EF
:1002F0006900B0936A0080916B0090916C00A091AE
:100300006D00B0916E000196A11DB11D80936B0030
:1003100090936C00A0936D00B0936E00BF91AF916D
:100320009F918F913F912F910F900FBE0F901F9033
:10033000189578948AB582608ABD8AB581608ABD35
:1003400083B7826083BF83B7816083BF89B78260D0
:1003500089BF80B7826080BF3298319A309A379ACD
:100360008CB580648CBD60E087E0C1DE61E080E038
:10037000BEDE61E081E0BBDE61E084E0B8DE442403
:100380004A94512C3EEAC32ED12CE12CF12C48E7A3
:10039000842E912CA12CB12C50E0652E50E0752EAE
:1003A0003324339437B8369A3699FECF84B125B1C9
:1003B00090E0922B893C91050CF463C08091600021
:1003C00081113CC010926000809171009091720088
:1003D000909374008093730080916F0090917000EF
:1003E0009093720080937100C7D0A7019601D1D07D
:1003F000DC01CB01805B9F4FAF4FBF4F90937000EC
:1004000080936F00B9D0A5019401C3D0625E7F4F85
:100410008F4F9F4F0CDF60916F007091700080E0F4
:10042000A2DE609171007091720081E09CDE6091AB
:1004300073007091740084E096DE55C0C0E0D0E097
:10044000BE0180E090DEBE0181E08DDEBE0184E071
:100450008ADEBE01D7FF02C06D5F7F4F759567953D
:100460007595679571956195710968597F4F072E4C
:10047000000C880B990BDBDE2196CF3FD10501F7ED
:10048000A1CF68EC70E080E090E0D1DE8091600068
:10049000811129C0C0E0D0E082010C1B1D0BB80106
:1004A00080E061DEB80181E05EDEB80184E05BDE01
:1004B000BE017595679575956795685D7F4F072EA9
:1004C000000C880B990BB3DE2196CF3FD10521F7A5
:1004D00060E080E0D5DD60E081E0D2DD60E084E0D6
:1004E000CFDD309260006114710409F45BCF88DDC8
:1004F00059CFA0E0B0E0EEE7F2E08AC0EC016881FD
:1005000079818A819B81611571058105910521F4AD
:1005100064E279ED8BE597E02DE133EF41E050E0C7
:1005200038D049015A0127EA31E440E050E04DD08B
:1005300069017A01C501B4012CEE34EF4FEF5FEF92
:1005400044D0022F132F9A01D701C601800F911FAB
:10055000A21FB31FB7FF03C00197A109B04888834A
:100560009983AA83BB83BC01CD019F77CDB7DEB74A
:10057000ECE06AC0BEDF089581E690E0BADF08953E
:1005800060936100709362008093630090936400B5
:100590000895052E97FB16F400940FD057FD05D053
:1005A00068D007FC02D046F408C0509540953095BD
:1005B00021953F4F4F4F5F4F0895909580957095CF
:1005C00061957F4F8F4F9F4F089568940013E89473
:1005D000A0E0B0E0EDEEF2E01DC0EFEFE7F9590169
:1005E0006A015E23550FEE08FE2C87019B01AC01CA
:1005F0009E23990F660B762FCB015DD0CDB7DEB76A
:10060000EAE024C02F923F924F925F926F927F92C6
:100610008F929F92AF92BF92CF92DF92EF92FF9212
:100620000F931F93CF93DF93CDB7DEB7CA1BDB0BBE
:100630000FB6F894DEBF0FBECDBF09942A88398863
:1006400048885F846E847D848C849B84AA84B9846A
:10065000C884DF80EE80FD800C811B81AA81B98176
:10066000CE0FD11D0FB6F894DEBF0FBECDBFED018A
:100670000895A1E21A2EAA1BBB1BFD010DC0AA1FE3
:10068000BB1FEE1FFF1FA217B307E407F50720F0FB
:10069000A21BB30BE40BF50B661F771F881F991F76
:1006A0001A9469F760957095809590959B01AC01BF
:1006B000BD01CF010895DF93CF939F92A0E49A2EBE
:1006C0000024D001E001F00116950795F794E79416
:1006D000D794C794B794A79448F41068A20FB31F97
:1006E000C41FD51FE61FF71F081E191E220F331F38
:1006F000441F551F661F771F881F991F9A9421F763
:100700009D01AE01BF01C00111249F90CF91DF91E7
:060710000895F894FFCFEC
:06071600010100000000DB
:00000001FF
